:020000040000FA
:1000000000040020990900002D0600007909000075
:1000100037060000410600004B060000000000000B
:10002000000000000000000000000000BD0900000A
:1000300055060000000000005F0600006906000091
:10004000730600007D060000870600009106000090
:100050009B060000A5060000AF060000B9060000E0
:10006000C3060000CD060000D7060000E106000030
:10007000EB060000F5060000FF060000090700007F
:10008000130700001D0700002707000031070000CC
:100090003B070000450700004F070000590700001C
:1000A000630700006D07000077070000810700006C
:1000B0008B070000950700009F070000A9070000BC
:1000C000B3070000BD070000C7070000D10700000C
:1000D000DB070000E5070000EF070000F90700005C
:1000E000030800000D0800001708000021080000A8
:1000F0002B080000350800003F08000049080000F8
:10010000530800001FB500F003F88DE80F001FBD75
:1001100000F038BC70B50B46010B184400F6FF70B8
:10012000040B4FF080500022090303692403406947
:1001300043431D1B104600F0E9F929462046BDE85F
:10014000704000F0E3B9F0B54FF6FF734FF4B475AB
:100150001A466E1E12E0A94201D3344600E00C4656
:10016000B1EB040130F8027B641E3B441A44F9D120
:100170009CB204EB134394B204EB12420029EAD17F
:1001800098B200EB134002EB124140EA0140F0BD8F
:10019000C34992B00446D1E90001CDE91001FF2224
:1001A0004021684600F094FB94E80F008DE80F00B2
:1001B000684610A902E004C841F8042D8842FAD12B
:1001C00010216846FFF7BFFF1090AA208DF8440069
:1001D00000F0FAF800F0DDF84FF01024A0691022CA
:1001E0006946803000F0DEF8A069082210A900F00E
:1001F000D9F800F0C2F870B504460068A94D072888
:1002000069D2DFE800F033041929561E2500D4E92D
:10021000026564682946304600F0FDF82A4621460A
:10022000304600F0BFF8AA002146304600F024FB1B
:10023000002800D0032070BD00F0D6FB4FF48050A2
:1002400007E0201D00F0C6F80028F4D100F0CCFB38
:1002500060682860002070BD241D94E807009200AB
:1002600000F00AFB0028F6D00E2070BD00F0BEF8AA
:100270000028FAD1D4E9010100EB81034FF080504E
:10028000026945696A43934209D84FF010225369C5
:1002900003EB81030169406941438B4201D9092085
:1002A00070BD5069401C01D10F2070BD2046FFF782
:1002B0006FFF00F09BF80028F7D1201D00F08AF8AE
:1002C0000028F2D160680028F0D100F07DF800F03D
:1002D00060F800F052F8072070BD10B50C461828E1
:1002E00002D00120086010BD2068FFF784FF206065
:1002F00010BD4FF01024A069401C05D0A569A66967
:1003000080353079AA2808D06069401C2DD06069FA
:100310000068401C29D060692CE010212846FFF7B6
:1003200012FF316881421CD1A16901F18002C03104
:1003300005E030B108CA51F8040D984201D10120FE
:1003400000E000208A42F4D158B1286810B1042896
:1003500003D0FEE7284600F070F85249686808604C
:1003600008E000F016F800F008F84FF4805001683B
:10037000491C01D000F012FBFEE7BFF34F8F4A4843
:1003800001684A4A01F4E06111430160BFF34F8FF5
:10039000FEE74FF010208169491C02D0806900F00F
:1003A0008CB870472DE9F04117460D4606460024EB
:1003B00006E03046296800F093F8641C2D1D361DB8
:1003C000BC42F6D3BDE8F0814FF0102080694FF4B5
:1003D00080519FE64FF080510A69496900684A439D
:1003E000824201D810207047002070474FF08050A3
:1003F0000169406941434FF01020826902F5805243
:10040000914201D2092070478069401C01D0002030
:1004100070470420704770B50C4605464FF480665F
:1004200008E0284600F049F8B44205D3A4F58064FA
:1004300005F58055002CF4D170BD4168044609B122
:10044000012600E000264FF010256869A26892009E
:1004500000F012FAF8B1A06881006869FFF75AFE4F
:10046000BEB16E694FF08050A56864680169426949
:100470005143A1420DD9016940694143A94208D9BC
:1004800029463046FFF7C7FF2A4621463046FFF788
:1004900089FFFFF772FFFFF797FFFFF77AFFF8E793
:1004A0000C0A0000000000200CED00E00400FA053A
:1004B000144801680029FCD07047134A02211160DA
:1004C00010490B68002BFCD00F4B1B1D18600868EF
:1004D0000028FCD00020106008680028FCD070477D
:1004E000094B10B501221A60064A1468002CFCD092
:1004F000016010680028FCD00020186010680028F7
:10050000FCD010BD00E4014004E5014070B50C468C
:10051000054600F073F810B900F07EF828B12146C6
:100520002846BDE8704000F007B821462846BDE8DF
:10053000704000F037B800007FB5002200920192B1
:10054000029203920A0B000B6946012302440AE05F
:10055000440900F01F0651F8245003FA06F635430B
:1005600041F82450401C8242F2D80D490868009A94
:1005700010430860081D0168019A1143016000F0F2
:100580003DF800280AD0064910310868029A104345
:100590000860091D0868039A104308607FBD0000C9
:1005A0000006004030B50F4C002200BF04EB0213E0
:1005B000D3F800582DB9D3F8045815B9D3F8085812
:1005C0001DB1521C082AF1D330BD082AFCD204EB1D
:1005D0000212C2F80008C3F804180220C3F8080881
:1005E00030BD000000E001404FF08050D0F83001F5
:1005F000082801D000207047012070474FF080503C
:10060000D0F83011062905D0D0F83001401C01D0B7
:1006100000207047012070474FF08050D0F8300123
:100620000A2801D0002070470120704708208F4918
:1006300009680958084710208C4909680958084773
:1006400014208A4909680958084718208749096809
:100650000958084730208549096809580847382053
:1006600082490968095808473C20804909680958A7
:10067000084740207D4909680958084744207B49BC
:1006800009680958084748207849096809580847FF
:100690004C20764909680958084750207349096871
:1006A00009580847542071490968095808475820D3
:1006B0006E490968095808475C206C49096809585F
:1006C0000847602069490968095808476420674954
:1006D00009680958084768206449096809580847A3
:1006E0006C20624909680958084770205F49096809
:1006F0000958084774205D49096809580847782057
:100700005A490968095808477C2058490968095816
:1007100008478020554909680958084784205349EB
:100720000968095808478820504909680958084746
:100730008C204E4909680958084790204B490968A0
:1007400009580847942049490968095808479820DA
:1007500046490968095808479C20444909680958CE
:100760000847A0204149096809580847A4203F4983
:10077000096809580847A8203C49096809580847EA
:10078000AC203A49096809580847B0203749096838
:1007900009580847B4203549096809580847B8205E
:1007A0003249096809580847BC2030490968095886
:1007B0000847C0202D49096809580847C4202B491B
:1007C000096809580847C82028490968095808478E
:1007D000CC202649096809580847D02023490968D0
:1007E00009580847D4202149096809580847D820E2
:1007F0001E49096809580847DC201C49096809583E
:100800000847E0201949096809580847E4201749B2
:10081000096809580847E820144909680958084731
:10082000EC201249096809580847F0200F49096867
:1008300009580847F4200D49096809580847F82065
:100840000A49096809580847FC20084909680958F5
:1008500008475FF480700549096809580847000097
:1008600003480449024A034B70470000000000207F
:10087000180A0000180A000040EA010310B59B079F
:100880000FD1042A0DD310C808C9121F9C42F8D0FA
:1008900020BA19BA884201D9012010BD4FF0FF30AB
:1008A00010BD1AB1D30703D0521C07E0002010BDC1
:1008B00010F8013B11F8014B1B1B07D110F8013B4D
:1008C00011F8014B1B1B01D1921EF1D1184610BD2E
:1008D00002F0FF0343EA032242EA024200F005B8B5
:1008E0007047704770474FF000020429C0F0128033
:1008F00010F0030C00F01B80CCF1040CBCF1020FD3
:1009000018BF00F8012BA8BF20F8022BA1EB0C01A7
:1009100000F00DB85FEAC17C24BF00F8012B00F89D
:10092000012B48BF00F8012B70474FF0000200B5C3
:10093000134694469646203922BFA0E80C50A0E802
:100940000C50B1F12001BFF4F7AF090728BFA0E8B0
:100950000C5048BF0CC05DF804EB890028BF40F87C
:10096000042B08BF704748BF20F8022B11F0804FBE
:1009700018BF00F8012B7047014B1B68DB68184754
:100980000000002009480A497047FFF7FBFFFFF706
:10099000B9FB00BD20BFFDE7064B1847064A1060B3
:1009A000016881F30888406800470000180A0000C9
:1009B000180A0000F3020000000000201EF0040FDF
:1009C0000CBFEFF30881EFF30981886902380078E2
:1009D000182803D100E00000074A1047074A1268B0
:1009E0002C3212681047000000B5054B1B68054A01
:1009F0009B58984700BD0000DB020000000000206B
:100A0000080A0000040000000010000000000000C0
:080A100000FFFFFF0090D0037E
:02000004000EEC
:100000000000042079030E0061030E0063030E005C
:1000100065030E0067030E0069030E000000000078
:100020000000000000000000000000006B030E0054
:100030006D030E00000000006F030E0071030E0040
:10004000AD740E0073030E00BD740E0073030E003A
:1000500073030E0073030E0073030E0073030E0090
:1000600073030E0073030E0073030E0073030E0080
:1000700073030E0073030E0073030E0073030E0070
:100080009D860E0035460E0073030E0073030E00AE
:1000900073030E0073030E0073030E0073030E0050
:1000A00073030E0073030E0073030E0073030E0040
:1000B00073030E0073030E00000000000000000038
:1000C00073030E0073030E0073030E0073030E0020
:1000D00059800E0073030E0073030E00F56C0E00C2
:1000E00073030E0073030E0079BB0E0000000000C6
:1000F0000000000073030E000000000073030E00F8
:1001000000000000000000000000000000000000EF
:1001100000000000000000000000000000000000DF
:1001200000000000000000000000000000000000CF
:1001300000000000000000000000000000000000BF
:1001400000000000000000000000000000000000AF
:10015000000000000000000000000000000000009F
:10016000000000000000000000000000000000008F
:10017000000000000000000000000000000000007F
:10018000000000000000000000000000000000006F
:10019000000000000000000000000000000000005F
:1001A000000000000000000000000000000000004F
:1001B000000000000000000000000000000000003F
:1001C000000000000000000000000000000000002F
:1001D000000000000000000000000000000000001F
:1001E000000000000000000000000000000000000F
:1001F00000000000000000000000000000000000FF
:10020000364937480A1A02D0072291438D463549AC
:1002100035480A1A06D00722914381F30988022241
:1002200082F3148831483249324A00F045F83248A6
:100230003249334A00F040F832483349334A00F03B
:100240003BF833483349344A00F036F833483449F0
:10025000344A00F031F834483449354A00F02CF87B
:1002600034483549354A00F027F8354835490022E9
:1002700000F02DF834483549002200F028F83448C1
:100280003449091A082903DB0022026004300160A6
:10029000314A90471F482049884205D002680430FF
:1002A00003B4904703BCF7E700208646EC460020E5
:1002B00000212A4A9047FEE7884207D0521A05D00B
:1002C000037801300B700131013AF9D1704788424F
:1002D00002D002700130FAE77047000000000420ED
:1002E00000F803200000042000000420B8FB0E00EA
:1002F0001C00002080000020D8030E00D8030E0050
:1003000018C60E00B8FB0E001C0000201C000020C8
:1003100024C70E0024C70E0024C70E0024C70E00F9
:1003200024C70E0024C70E0024C70E0024C70E00E9
:10033000B8FB0E001CFC0E00800000208000002096
:1003400080000020E88C0020E88C0020E88C002051
:10035000E88C0020E88C0020A1030E00E9780E0054
:10036000FEE7FEE7FEE7FEE7FEE7FEE7FEE7FEE765
:10037000FEE7FEE7704700BF1048804710484FF087
:100380000701884385460F4880470F48016841F4BC
:1003900070010160BFF34F8FBFF36F8FFFF730BF66
:1003A0000A480B490B4A884207D0521A05D00378F5
:1003B00001300B700131013AF9D1704775030E001D
:1003C0000000042089870E0088ED00E010C70E00B1
:1003D000080000201C0000200020704738B50446AB
:1003E0002C4804F003FC2C4B2A481C6004F03CFC15
:1003F0002A4C2B4A50B9A01AC0080004294940F0E1
:10040000010000F0C5FC0325284638BD264B03300B
:10041000586040F603010020A41A9860D960187053
:10042000E408224B224858602404D960214822491C
:10043000986044F0040419612046204900F0A8FCAB
:1004400005F014FA8528054601D00028DCD10020EB
:1004500005F084FA05460028D6D103F0ABFE184813
:1004600002F0E2F805460028CED1164802F0A2F9C3
:1004700005460028C8D11449204600F089FC02F046
:1004800049F905460028BFD11049204600F080FCFC
:10049000BAE700BFE8C60E0008010020B8C60E008B
:1004A00038C60E0023C80E00A81900209419002099
:1004B000DD040E00D1040E003C19002044C80E00DB
:1004C00084C80E007CC70E005AC80E0067C80E0014
:1004D000011F014804F0F0BBE8C60E0037B50D4619
:1004E000044618B90A49932004F085FA1DB9084951
:1004F000942004F080FA01AB2A462146054805F015
:100500001DF9019A0349044803F03AFA03B030BDDB
:10051000A0C70E00231900207CC70E0002F0FABA13
:10052000083810B506283ED8DFE800F0081E2F3D39
:100530003D3D0400BDE8104002F004B91A4B1B48D1
:100540001B49C01AC008000440F0030000F020FC62
:1005500005F04EFE08B902F0F3F8164B1B6813B312
:100560000120BDE8104018470F4B10481249C01A2F
:10057000C008000440F0030000F00AFC02F010F98B
:100580000C4B1B687BB10220EBE7074B07480B497C
:10059000C01AC008000440F0030000F0F9FBBDE8F9
:1005A000104002F0DFB810BD38C60E00B8C60E000D
:1005B00090C80E0008010020A3C80E00B5C80E00A8
:1005C00008B503781BB9BDE8084002F0A3BA094A90
:1005D000042101F063FC58B1074B08480849C01AD0
:1005E000C008000440F00100BDE8084000F0D0BBA6
:1005F00008BD00BF1D050E0038C60E00B8C60E00AF
:10060000BFC80E002DE9F04799B102293ED1012261
:100610002449254803F0D4F9244A254B25499B1A3F
:10062000DB081B040246BDE8F04743F0020000F07F
:10063000B3BB1E4B1E48DFF86C801F4DDFF88CA04B
:10064000C01AC008000440F0040940F0010498F802
:100650000010194805F0A7F8074680B9504609F080
:1006600071F8AA686968154809F0CAFF144804F0CF
:10067000FBFA064660B91349204600F089FB0122C7
:100680004146094803F09CF90028E0D0BDE8F08716
:1006900002460D494846033600F07EFB6E60AF60AF
:1006A0002F70ECE7541900207CC70E0038C60E00EE
:1006B000B8C60E0024C70E00A81900209419002007
:1006C000E8C60E004AC70E0065C70E0020C60E0021
:1006D0007047000007B5044B0093044A402300F024
:1006E00032F803B05DF804FBF1060E00B9190020E2
:1006F0002DE9F84389461446E2B10F4B0F4E03250E
:10070000002743F00108224609EB0701002007F00B
:10071000BDF90744241A48B933785BB14FF47A40E5
:10072000C047013D02D13570BDE8F8830123337025
:10073000002CE8D1BDE8F883E0C80E00B81900200D
:10074000704707F0D7B9F0B595B01C4608460D467E
:10075000164604F04AFF1A9B099400240D930822C0
:10076000234605A9284608960A948DF82C400C9437
:1007700004F064FF079B0293BDF81830ADF80C300D
:10078000BDF81A30ADF80E309DF814308DF81140D8
:1007900003F00302012A1DD1BDF81440059EC3F3E6
:1007A000C203C4F383148DF81030A20008230EA9ED
:1007B000284604F043FFC6F3952608AB0093224673
:1007C00002AB0EA9304600F027FC284604F011FFCA
:1007D00015B0F0BD022AF8D1BDF81640C3F3C2032C
:1007E000C4F389148DF810300827082C264628BF3A
:1007F00008263B4632460EA9284604F01FFFA41BDC
:1008000008AB02AA31460EA8374400F069FC002C60
:10081000EBD1DAE708B5FFF794FF0421064800F0B2
:1008200065FB002803DA0549412004F0E4F8044B95
:1008300001225A7108BD00BF28C60E00F4C80E0080
:1008400020000020037813F0040216D003F0030305
:10085000012B03D0022B09D0012070470A680088C1
:100860000232C0F3831002440A60F5E70B68428845
:10087000023303EB92130B60EEE710467047000063
:100880002DE9F04F4A4CDFF8308187B00D4607461E
:10089000861C0020009203F00FFD23682B60626825
:1008A000A3681344226801339B1AA8F1040BA8F132
:1008B0000809B34219D3009A0023002A6FD00122FD
:1008C00062F3010343F0040367F389132168A2680C
:1008D0000A4003320E44002044F82230266003F020
:1008E000FBFC012007B0BDE8F08F0121404604F079
:1008F00057F9584604F071F90DF1180A484604F00A
:100900006CF960684AF8100DA36801931840033031
:1009100004EB80005146FFF795FF0546019B0298C6
:10092000002DF2D103EA000204EB8202D1680391A8
:10093000821C0130184004EB80000292C3680493CB
:1009400001F00303012B22D0022B05D019494FF4EB
:10095000BF7004F050F809E0BDF80E30BDF8125039
:10096000C3F38913033302EB93030293484604F065
:1009700037F908B1029B63602946404604F010F93C
:100980006268A3681344226801339B1A91E7BDF89B
:100990000C30BDF81250C3F383131344E5E7022271
:1009A00062F3010343F0040367F39F538EE700BF34
:1009B000CC1A00206CC90E00E85A00200D4B0E48DE
:1009C00040F6FF7244F2180110B59A6000225A50A6
:1009D00044F214011A605A5044F220015A605A54E9
:1009E00004F0BAFD044610B9044804F03DFE204668
:1009F00010BD00BFCC1A0020FCC60E00CCC90E00F2
:100A000030B50A4C71B10A4A0A49121BD2080023B8
:100A10009A4201D1002030BD31F82350854202D0E6
:100A20000133F5E7034654F8330030BD38C60E00F5
:100A3000E8C60E001C000020094B013903EBC00082
:100A4000032909D8DFE801F00A02040604207047F0
:100A50000079704740797047002070470220704746
:100A600038C60E00034B58681B68C31A58425841D9
:100A7000704700BFCC1A00202DE9F04385B0FFF786
:100A8000F1FF0646002840F0F680844D44F218033A
:100A9000E850BFF34F8F6868AC68DFF8188204AF86
:100AA00047F8100D2040033005EB80003946FFF772
:100AB000C9FE009B18B1D8F80020002A5ED004EAD5
:100AC0000302991C013305EB8202234005EB8303EB
:100AD000D268DB68029302F00303022B01920091BB
:100AE00061D1BDF806306E48C3F389184646502ED2
:100AF000A8BF502666F38F1306F10801ADF8063043
:100B000004F042FD0746002800F0BD8004F06DFDB2
:100B1000082201A90023384604F07AFD009924EA4E
:100B2000010201329200964236D9002A00F0A580D7
:100B300021405FFA82F90331A6EB0906594C05EB17
:100B40008101F6B208234A46384604F061FD34B10B
:100B500009F1080332462146384604F059FD009B4E
:100B600008F1030803EB9803009344F21803EB58D1
:100B7000002B4CD144F21003EC5857E02A689A42FB
:100B800004D86A60304605B0BDE8F08304EA03008B
:100B9000033005EB800089E70C40E11C0823324656
:100BA00005EB8101D8E7012B6DD1BDF804303C483D
:100BB000C3F38311062928BF062161F3891302318B
:100BC0008900ADF8043004F0DFFC074600285AD055
:100BD00004F00BFD0023082201A9384604F018FD9B
:100BE0000026BDF80420C2F38312B31C96424FEADC
:100BF0008303BAD200994A1C21400331009205EBCD
:100C000081010422384604F003FD0136E9E7384645
:100C100004F0EFFCFFF726FF80F00100C6B2B1E759
:100C2000E3685B79002B32D1E3681C68002CF7D1B4
:100C3000384604F0DEFC204603F03EFB44F2180385
:100C4000EB580BB9009B6B60002003F045FBE1E71C
:100C5000236820469B689847E3681C68002CF7D1FE
:100C6000114B12481249C01AC008000440F002009B
:100C700000F08EF8CEE7002684E75FFA86F9144686
:100C8000084916465EE744F21003EC58E6E723688D
:100C900039461B6820469847C6E700BFCC1A00209B
:100CA000FCC60E00D81A002038C60E0060C60E0022
:100CB000D8C90E00E45A00202DE9F74F2F4C80468A
:100CC0000F46914601A9012218469B46A568FFF7E9
:100CD000D7FD00283DD0DDF804A000260AF102026D
:100CE0005E4541D10021264803F01AFF80F3100B26
:100CF000244A254B4FEA18499B1AB9EBD30F04D36A
:100D0000224940F2A31003F076FE0AF101022A40C4
:100D100004EB820249EA0B43D36005EA0A0303337A
:100D2000012114F8232068F3C50204F8232034F8C5
:100D3000232066F3891224F8232054F8232067F334
:100D40009F2244F8232061F301026FF3820204F82A
:100D5000232044F22003E35C1BB1FFF78DFE002843
:100D6000FBD103B0BDE8F08F02EA050104EB81017D
:100D700059F82630CB6001360132B1E7CC1A002099
:100D8000E85A002038C60E00E8C60E006CC90E00F6
:100D900000231A46FFF790BF13B502AC012344F8B5
:100DA000042D2246FFF788FF02B010BD07B58DE87D
:100DB0000C0002236A46FFF77FFF03B05DF804FBD7
:100DC0001FB50293069B0192039301AA0323FFF729
:100DD00073FF05B05DF804FB1FB58DE80C00069BA2
:100DE0000293079B03936A460423FFF765FF05B050
:100DF0005DF804FB7FB50293089B0393099B049362
:100E00000A9B0192059301AA0523FFF755FF07B03E
:100E10005DF804FB2DE9F3478046324CD01C8A462E
:100E2000174601A900228008A568FFF729FD0028C0
:100E300040D0DDF80490A66809F102000190013667
:100E40002840361AB600B74200F103003DD83A46B2
:100E5000514604EB80000AF0A1FF0021224803F074
:100E60005FFE80F3100009F101032B4004EB8303C4
:100E7000000440EA1840D86005EA0903033304EB94
:100E8000830214F8231068F3C50104F8231034F822
:100E900023106FF38F1124F82310518867F38F11FB
:100EA000518014F82320022161F301026FF38202C2
:100EB00004F8232044F22003E35C1BB1FFF7DCFDC0
:100EC0000028FBD102B0BDE8F0873246514604EB62
:100ED00080000AF063FFBA1B0AEB060104F10C0064
:100EE000B9E700BFCC1A0020E85A002030B544F220
:100EF00010030F49CA580023144644B9C46823712B
:100F00005AB944F2100548512260184630BDE468D1
:100F100025799D4206D02468EFE7D26811682160E8
:100F20001060F2E701330A2BE6D14FF0FF33ECE714
:100F3000CC1A002038B50A4A44F2100344F22001CA
:100F4000D458012353541D4604B938BDE3685D717C
:100F5000236820465B689847E3681C68F4E700BF95
:100F6000CC1A0020C38873B504460D4633B1144A29
:100F700000921449144A284603F0D4FE217A052928
:100F80001CD0637A4BB1A088FFF756FD0F4B104978
:100F900053F82020284603F0C5FE227A0D4BA08886
:100FA00053F822600021FFF72BFD0B490346324620
:100FB000284602B0BDE8704003F0B4BE02B070BD78
:100FC00043CA0E002BCA0E0023CA0E00F0C90E0041
:100FD00048CA0E0058CA0E004BCA0E00037A052BF1
:100FE00010B50C460FD0437A23B1084A0849204671
:100FF00003F098FE0749204603F094FE2046BDE822
:10100000104003F07DBE002AF8D0F3E743CA0E007B
:1010100048CA0E0040CA0E002DE9F04385B01F46B5
:101020000C9D002306460C46904695F80C902B73B9
:1010300029463846FFF796FFB8F1060F09D8DFE8D2
:1010400008F00412181F283340003146284603F0E8
:1010500069FE002229463846FFF7C0FF85F80C904C
:1010600005B0BDE8F08322683146284603F05AFEF9
:10107000EFE794E80C003146284603F053FEE8E71A
:10108000A3680093314694E80C00284603F04AFE1A
:10109000DFE7E3680193A3680093314694E80C000E
:1010A000284603F03FFED4E723690293E3680193E7
:1010B000A3680093314694E80C00284603F032FE02
:1010C000C7E76369039323690293E3680193A36805
:1010D0000093314694E80C00284603F023FEB8E75D
:1010E00008292DE9F84F80460E4617461C4636D88B
:1010F000002593F80C901D7319461046FFF732FF38
:10110000DFF87CA0DFF87CB0AE422AD918F80520C1
:101110005946204603F006FE0135082DF4D1164944
:10112000DFF864B0204603F0FDFD0025AE421DD976
:1011300018F805A050460AF0D3FD002814BF524607
:101140002E225946204603F0EDFD0135082DEDD144
:10115000012221463846FFF741FF84F80C90BDE894
:10116000F88F5146204603F0DDFDD5E703492046C0
:1011700003F0D8FDE9E700BF1ECA0E001CCA0E002E
:101180001ACA0E0014CA0E0020CA0E0003682F2BC4
:1011900010B5044604D907494FF4E87003F02BFC5E
:1011A00023681F2B83BF03F01F03034823604FF006
:1011B000A04010BD10CB0E0000030050032813B553
:1011C000044603D90849472003F015FC074B02A841
:1011D0001B5D40F8043DFFF7D9FF019A01239340BE
:1011E000C0F8083502B010BDBDCA0E000CCB0E0011
:1011F00008B50020FFF7E2FF0120FFF7DFFF022024
:10120000FFF7DCFF0320BDE80840FFF7D7BF000071
:10121000032813B5044603D90C495F2003F0EBFB08
:101220000B4B02A81B5D40F8043DFFF7AFFF01998F
:10123000D0F8043501228A4022EA03011340C0F8A5
:101240000815C0F80C3502B010BD00BFBDCA0E00B5
:101250000CCB0E00F7B5C207054611D5124F00247E
:101260000326E35D00936846FFF790FF009B01347F
:1012700003F5E073042C40F82360F2D1FFF7B8FFC8
:10128000AB070FD5094E00240C25A35D019301A8DF
:10129000FFF77CFF019B013403F5E073042C40F859
:1012A0002350F2D103B0F0BD0CCB0E0008CB0E00E2
:1012B0000023C2600160416083608B781A44026140
:1012C00091F903301A4442610878003018BF0120B8
:1012D000704738B5426811780346002938D002F1CA
:1012E0000C014160147B2CB9C2680168FFF7E0FF74
:1012F000204638BD5078117900F03005302D14D1DA
:10130000547B04F03004302C0FD190781969091AFD
:1013100019610021907B084419690144196192F90F
:101320000F2011445961012038BD00F0F004202C39
:1013300008D1507910FB01F1002DEBD198680130F4
:101340009860E7E700F0C000802808BF0421F3E7B9
:10135000084638BD70B5456804460E4663681A787D
:10136000B24204D15B7803F00F03082B07D120466B
:10137000FFF7AFFF63689D42F0D1002070BD0120F0
:1013800070BD43681A44426011B10139934201D1E2
:101390000120704713F8010B01F8010FF6E770B553
:1013A0004268537803F00F04082C86B01FD10369FC
:1013B0001C6800260CB906B070BD236862689D6881
:1013C000267329466846FFF773FF6368049304F1A8
:1013D0000C0305936B7803F0C003802B08BF231D1B
:1013E000684608BF0493FFF7DAFFA468E2E713F04A
:1013F000C0011BD103F03005102D08D143691970CD
:10140000072C09D10169906800F01AF8D3E79D060E
:10141000F6D543691970CEE791680069127911B168
:101420000AF0BCFCC7E70AF0E3FCC4E78029C2D19C
:10143000016900229B060A60BDD543691A70BAE7AC
:101440007FB50A4601466846FFF732FF30B168466D
:10145000FFF7A5FF6846FFF73CFFF7E707B05DF829
:1014600004FB83682DE9F3410446884623B900272D
:10147000384602B0BDE8F081036801220DF1070192
:10148000984707460028F2D0A3689DF80750013B13
:101490002A06A3601AD505F07F050726A368002B4E
:1014A000E5D0236801220DF1070120469847002866
:1014B000DDD0A3689DF80720013BA36002F07F0305
:1014C000B3401D43130606F1070602D4C8F80050C6
:1014D000CEE7232EE2D1CAE730B5044685B01546E3
:1014E000A9B90268114B9A4211D0102D06D82A468C
:1014F00069462046FFF7F0FF05B030BD102269466F
:101500002046FFF7E9FF0028F6D0103DEDE7A3687D
:101510009D4201D90020EFE723682A4620469847DC
:101520000028F7D0A3685D1BA560E5E783130E00D4
:1015300073B50D4601A906461446FFF792FF88B120
:10154000019A511C10D26B7803F0C003802B0BD092
:101550002B79994208D821463046FFF7BDFF019B01
:101560000022E25402B070BD0020FBE773B50D46C7
:1015700001A906461446FFF774FF90B1019AFF2AAD
:1015800011D8511C0FD26B7803F0C003802B0AD006
:101590002B79994207D82146304601F8012BFFF7F5
:1015A0009BFF02B070BD0020FBE7000010B5826019
:1015B000024C046000224160C26010BD83130E0023
:1015C0002DE9F34704460F464FF000084FF000099D
:1015D0000025A36803B3236801220DF1070120460B
:1015E00098470646C0B1A3689DF807A0013B2A466C
:1015F000A3600AF07F0000210AF0D0FA1AF0800FF1
:1016000048EA000849EA010905F1070502D1C7E9DE
:10161000008902E0462DDCD10026304602B0BDE84C
:10162000F08737B50D4669461446FFF7C9FF68B124
:101630002B79082B0CD1DDE90001C4E90001DDE9BB
:1016400000238B4206BF82420120002003B030BD40
:10165000042B04D1DDE9000120600021EFE7022B1B
:1016600003D10098208080B2F7E7012B05D1DDE996
:101670000001207000F0FF00EFE70020E6E737B53B
:101680000D4669461446FFF79BFF30B12A79082AB8
:1016900005D1DDE90023C4E9002303B030BD009B80
:1016A000042A18464FEAE37108D123601A460B4614
:1016B0008B4206BF824201200020EEE7022A04D1BD
:1016C0001BB223801AB2D317F2E7012A03D15BB20F
:1016D00023705AB2F7E70020DFE7F7B50C46002188
:1016E00019702170116001A9074615461E46FFF7C3
:1016F000B8FE30B9BB6813B901233370002003B0C2
:10170000F0BD01990029F7D0CB0801F007012B604B
:101710002170F4E713B5044605291FD8DFE801F06E
:10172000030F151E1E1C012201A92046FFF7D4FE3F
:1017300018B19DF90430002BF5DB02B010BD082272
:1017400000212046FFF7C8FEF7E701A9FFF789FE51
:101750000028F2D0019AF3E70422F1E70020ECE739
:1017600073B50D4601A90446FFF77BFE064618B97E
:101770000026304602B070BD94E80F0085E80F00E7
:1017800001998A42F4D3A960A3685B1AA360F0E7C9
:101790002DE9F04355686B7813F0C00C89B006460C
:1017A0008E46144604D0BCF1400F68D0002544E0BA
:1017B00003F00F025C4903F03003102B51F8227044
:1017C0001DD006D8002BF1D122692946B84705461D
:1017D00033E0202B17D0302BE8D1636929781970BA
:1017E000072A0AD1636820691A7961460AF000FB6A
:1017F000636821699868FFF723FE22693CE063690A
:1018000001221A70E0E7BEF1020FD4F8148027D14C
:10181000042A25D804A9FFF7A3FF05460028C5D050
:10182000069B2BB1616898F800304A799A4208D833
:10183000059B7360069B002BB8D1284609B0BDE814
:10184000F0830879226900FB032204A8B84728B175
:1018500098F80030013388F80030E1E70546E7E703
:1018600098F800306A799A42A0D922692979581CDF
:1018700088F8000001FB032261683046A6E717697B
:101880003B6807F1040913B9FFF744FF9FE70229FA
:1018900013D104A9FFF764FF002887D03B68616873
:1018A0004A4604A89847054600283FF47FAF069BA8
:1018B000002BF3D1059B7360BFE701292AD009D320
:1018C00005297FF473AF04220DEB0201FFF704FE3C
:1018D000042524E000250DF1040801350B2D3FF40B
:1018E00065AF012241463046FFF7F6FD00283FF480
:1018F0005DAF18F9013B002BEFDB0C4B049301AB00
:1019000005930023069507933B6861684A4604A83F
:1019100098475CE7082201A9FFF7DEFD08250028AB
:101920003FF444AFE9E700BF3CCB0E0083130E0049
:101930002DE9F04F91B00026044604A802960396C4
:10194000FFF7B6FCA3683BBB059B069C5D7804A82B
:10195000FFF7BFFC0028F7D115F0300F03D1059B2E
:101960001B7803B10134002C00F0B480620900231D
:1019700002A9934240F0A78010AA02EB830304F06F
:101980001F04C4F120044FF0FF3053F8383CE0400E
:10199000C31A584258410EE00DF1030301AA0DF19C
:1019A00002012046FFF799FE814638B99DF80330C1
:1019B000002BC9D1002011B0BDE8F08F019904A817
:1019C000FFF7C8FC00285AD1019B9E421DD8059DF7
:1019D000059A537803F00F03082B7DD004A8FFF776
:1019E00078FC059B9D42F3D14FF0FF36019FBE422C
:1019F0000BD8089BD4F808809DF802A01D68A36846
:101A00000DB1984509D098459CD19DF8021020460B
:101A1000FFF780FE002895D1CCE72B68D3F800B003
:101A2000BBF1000F08D053463A4629462046D84716
:101A30000028BFD0AD68E2E7D3F808B09BF80030CB
:101A40009F421AD16A6859460AA8FFF731FC6B68B1
:101A50000E9305F10C030F939BF8013003F0C003C4
:101A6000802B04BF2B1D0E934FF001032B730AAA8A
:101A700051462046FFF78CFEDAE74846D8E7059B3B
:101A80005B7813F0300F0FD1069A3F2A0CD851091A
:101A900010AB03EB810102F01F020123934051F8C8
:101AA000382C134341F8383CE5682DB104AB9DF860
:101AB000022001992046A84704AA9DF8021020465A
:101AC000FFF766FEA6E751F8235001357FF473AFA8
:101AD00001334EE701206EE7167887E770B50C46B4
:101AE0000646154611462046FFF7AAFC2A4621461F
:101AF0003046BDE87040FFF71BBFF0B585B00C461F
:101B00008D68694607461646FFF72AFE68B1A06849
:101B100058B1637803F03003202B324629466846DB
:101B200005D1FFF7DBFF019B7B6005B0F0BDFFF740
:101B3000FFFEF8E7D3B50C466946FFF741FD70B1EB
:101B4000DDE90023002702F001065B084FEA3202BC
:101B500056EA07011CBFD243DB43C4E9002302B0AD
:101B6000D0BD37B50D4669461446FFF7E3FF68B1AF
:101B70002B79082B0CD1DDE90001C4E90001DDE976
:101B800000238B4206BF82420120002003B030BDFB
:101B9000042B03D100982060C117F0E7022B04D179
:101BA000BDF90000208000B2F6E7012B04D19DF9B9
:101BB0000000207040B2EFE70020E7E713B50422F1
:101BC0000C460DEB0201FFF787FC08B1019B236077
:101BD00002B010BD1146FFF7F1BF13B508220C4645
:101BE0006946FFF779FC18B1DDE90023C4E9002359
:101BF00002B010BD1146FFF7F0BF38B520220446F1
:101C000008300D460AF0CAF82022A91804F128006D
:101C10000AF0C4F8002038BD2DE9F3411B4D984669
:101C20001B4B036004460E4628460121174602F06E
:101C300077FFBFF35F8F20BB00F0F0F83B46089AB8
:101C4000CDF8008006F10801204608F03BFE04466E
:101C500000F0F2F82B68012B03D00E49932002F01C
:101C6000CAFEBFF35F8F00232B606CB10A4A48F2B3
:101C7000165048F24253944208BF184602B0BDE8DD
:101C8000F08148F20450F9E72046F7E7886B00201E
:101C9000DD55AABB6CCB0E008408F0000E4B9842B9
:101CA00016D006D820B1013B98420ED048F216500B
:101CB00070470A4B9842F9D00333984208D00D3B45
:101CC0009842F3D148F20250704748F201507047F1
:101CD00048F20350704700BF0102F0000C02F00010
:101CE00008B5083008F058FEBDE80840FFF7D6BF39
:101CF00010B5064C2268012A03D00549932002F052
:101D00007AFEBFF35F8F0023236010BD886B002035
:101D10006CCB0E0013681F2B70B505460E4614469B
:101D200019D901210F4802F0FBFEBFF35F8FA8B95C
:101D300000F074F8314605F1080008F09FFE0546F2
:101D400000F07AF8FFF7D4FF2846FFF7A7FF38B96D
:101D50002023236070BD48F2145070BD48F2045037
:101D600070BD00BF886B00202DE9F04107460C468E
:101D700017480121154602F0D3FEBFF35F8F18BB51
:101D800000F04CF8DFF84C800837B5F5805F2E4640
:101D900028BF4FF4805632462146404609F0FEFFE8
:101DA00032464146384608F011FEAD1B3444064623
:101DB00008B9002DE9D100F03FF8FFF799FF304650
:101DC000BDE8F041FFF76ABF48F20450BDE8F0817A
:101DD000886B0020885B0020024B0020C3F80005C0
:101DE000704700BF00A0025038B50A4B00251D60A7
:101DF000BFF35F8F084C0123C4F8003508F06EFE76
:101E0000C4F8005520B1052848F2035018BF03203C
:101E100038BD00BF886B002000A00250044B012297
:101E2000C3F80025034B4FF480625A60704700BF2F
:101E300000A0025000E100E0044B0022C3F800259E
:101E4000034B4FF48062C3F88420704700A0025017
:101E500000E100E012F0030310B511D1094C22603B
:101E60004C1CE400A4B22244074C2260074A1370C1
:101E7000074A1370074A1080074A1846118010BDA0
:101E8000072010BD946B0020906B00208C6B00200D
:101E90009C6B0020986B00209A6B00202DE9F04786
:101EA000294D2B888B4206460C46174646D3002008
:101EB00002F002FA254B264A264819781378008842
:101EC000DBB2834238BF0133C9B234BFDBB2002377
:101ED00099422CD092F800801378DBB2984286BFEA
:101EE0000133DBB200231370002002F0F5F94FF646
:101EF000FF73984525D0DFF864A0DAF800304FEA88
:101F0000C80903EB090243F838709EB194B1124B33
:101F100028881B68224608FB0030314609F03EFF46
:101F2000DAF800304B4400209C80BDE8F0874FF683
:101F3000FF78D9E700209080BDE8F0870920BDE850
:101F4000F0870420BDE8F087986B00209C6B002090
:101F50008C6B00209A6B0020906B0020946B00200B
:101F6000F8B5124C124D264622782B789A4200D1B1
:101F7000F8BD23780F48104A078812680F48DBB273
:101F800019B202EBC10E006852F83120BEF80410FD
:101F900003FB070090470A4A23781288DBB29A4273
:101FA00086BF0133DBB200233370DDE79C6B00207A
:101FB0008C6B0020986B0020946B0020906B0020AD
:101FC0009A6B002040684B6898428CBF002001202B
:101FD0007047000037B505460C460A4801A902F0D3
:101FE0002AFD60B10570446001A9064802F04DFD6C
:101FF00018B1054802F00EFB002003B030BD0420EC
:10200000FBE700BF006C00202800002038B5C36843
:1020100004461BB91149872002F0EDFC104B1B78D8
:1020200013B90025284638BD237D002BF9D0A368BD
:1020300003B92375E36820699847A368002BF0D0A3
:10204000227D02F0FF05002AEBD0626805481344A8
:102050006360214603F012FBE4E700BFD2CB0E0021
:10206000A46B0020BCCB0E002DE9F743054602F01F
:10207000C3FA002858D10021284602F0C1FAB8B1AD
:10208000614C2368A3B1284602F0C0FA23685B685C
:10209000C01A20F07F40B0F5960F04D35B494FF48F
:1020A000887002F0A8FC2068FFF7B0FF00232360CF
:1020B00001A95748DFF85081564EDFF8609102F0D1
:1020C000F4FC0446002C4ED1524F4F4CDFF85081A7
:1020D000384603F0FFFA002800F08B80426823683E
:1020E0005B68216851B12168D9B19A4219D223683D
:1020F0001B7D1BB12168384603F0C0FA384603F057
:10210000D9FA4FF49603064642680021404602F091
:1021100001FA002862D1236813B9284602F0DEF9DB
:10212000266003B0BDE8F083374A13682BB113680B
:102130005B68126823F07F435360364803F0CAFAA5
:102140000446002897D06368B3F1807F06D220460A
:10215000FFF75CFF204603F0C9FAF1E7636823F05C
:102160007F436360F6E72378012B2AD009D3022B43
:102170001DD10024304603F09DFA002840D004759C
:10218000F8E763681A7D92B901221A7528465F68DC
:1021900002F03CFA381A484588BF6268616882BF1D
:1021A000536823F07F435360304603F067FA01A978
:1021B000174802F0A5FC01A9154802F076FC044678
:1021C00080E7D8F800306168994208BF00233046A4
:1021D00008BFC8F8003003F095FAE8E70D2803D1EE
:1021E0003046FFF713FF73E70849C22002F003FCF3
:1021F0006EE72368002B94D1284602F07DF990E722
:10220000054B01221A70D2E7106C0020D2CB0E00D1
:10221000006C0020BCCB0E00A46B0020FFFFB400BC
:102220002800002013B50E4B0E49186801900823B2
:1022300058220D4802F0ECFB044668B90B4A0C48E2
:1022400001A902F0BBF8044630B90121084802F0A8
:10225000CFF9084B01221A70204602B010BD00BF12
:10226000B8CB0E00A86B0020006C002069200E0087
:1022700028000020A46B002070B50C4615460646C9
:1022800020B90A4940F2EF1002F0B5FB35B9074911
:102290004FF4F87002F0AFFB072070BD621E336888
:1022A00054425441DD609C60002070BDD2CB0E00D2
:1022B00070B50D461646044620B90E4940F2FF108F
:1022C00002F099FBB5F5350F10D2237D83B9266155
:1022D000094802F09BF9A3682844606003B1A56037
:1022E00021460020BDE87040FFF774BE072070BD96
:1022F000002070BDD2CB0E002800002010B504468F
:1023000020B9064940F21A2002F075FB002323751C
:1023100021460120BDE81040FFF75CBED2CB0E0085
:10232000014802F073B900BF28000020024B5B682F
:1023300003B11847704700BF146C0020024B0146E0
:102340005A681868104700BF686C00200378052B96
:102350000CD1084AD2F88434D2F8802412F0FF0F4E
:1023600004D1054ADBB2052B08BF1046034B1B689E
:10237000184700BF0070024058CD0E00146C0020BA
:10238000FFF7E4BF38B50D46044620B9064940F2D0
:10239000431002F030FB6378AB4283BFA078401952
:1023A0000019002038BD00BF3ECC0E0038B50D46E8
:1023B000044620B906494FF4887002F01CFB237ACA
:1023C000AB4283BF093405EB45056019002038BDD9
:1023D0003ECC0E0070B50D46044620B90D4940F2C2
:1023E0000F1002F008FB636823B90A494FF48870A4
:1023F00002F001FB63681B6823B9064940F2111023
:1024000002F0F9FA6368294620461B68BDE870406F
:10241000184700BFF3CC0E0008B520B1044940F2C4
:102420007B2002F0E8FA0348BDE80840FFF78EBFC2
:10243000F3CC0E0061CD0E0010B5044620B904495E
:1024400040F2432002F0D7FA2368186810BD00BF9D
:102450009ECC0E0010B510F0800F00F00F04E4B217
:102460000AD0082C04D909494FF4CC7002F0C3FA01
:10247000074800EBC40010BD082C04D903494FF4F1
:10248000CF7002F0B8FA0348F3E700BFF3CC0E00B8
:10249000206C0020686C002070B50D460646FFF7E2
:1024A000D9FF044605604DB9730604D105494FF4C0
:1024B000E17002F0A0FA0023636070BD6B681B68D6
:1024C000FAE700BFF3CC0E0001280AD006D3022899
:1024D00009D0064940F2622002F08DBA0448FFF7A5
:1024E00035BF0448FBE70448F9E700BFF3CC0E0012
:1024F0004CCD0E0050CD0E0054CD0E0038B5831ECD
:10250000DBB2062B98BF194A194C98BFD25C2378CE
:10251000A3F10203DBB288BF0022062B9ABF134946
:10252000CB5C00239342054603D0A2B1114803F0CF
:10253000B5F9022D12D0082D10D000232278022ADE
:1025400001D0082A0CD101229A4202D053B103F0E3
:102550009FFE257038BD03F0DDF9EAE70123EDE7C2
:102560000022F1E703F08AFEF3E700BF37CC0E004C
:10257000B96C0020300000202DE9F04F87B006AC88
:10258000002644F8106D05468946924698466B68C9
:1025900000225F68294601232046B84740B98DF8DC
:1025A0000600049004460746BE4203D805202AE0F0
:1025B0000136ECE76B680DF10602D3F804B029464A
:1025C000012304A8D8476B680DF10702D3F804B0C3
:1025D0002946012304A8D8479DF807304B459DF8AC
:1025E000063015D1544511D1109A136088F8003087
:1025F00088F801906A68023B5468294608F1020293
:1026000004A8A047002007B0BDE8F08F0134E4B271
:102610006A68023BD2F804B02946002204A8D847D1
:102620009DF806301F44BFE72DE9F341054603F04E
:1026300017F920B92D4940F2313002F0DCF92C486D
:1026400003F062FE044600284BD12A4B18702A4B37
:1026500018602A4B014618604822294809F0C8FB37
:1026600048222146274809F0C3FB274B9DB9274A3A
:102670001D7283E824001A680AB9244A1A600020EF
:1026800003F06CF918B1852801D005F0A3F80024F7
:10269000DFF87C800FE095E8070083E80700EAE7B1
:1026A00041460078FFF7F8FEF1B23846FFF76AFEC0
:1026B00001360028F4D121464046FFF777FE651C1D
:1026C000EDB2074610B100262C46EDE702A90B2318
:1026D00001F8043D0E48FFF77DFE044608B103F003
:1026E000A1FC204602B0BDE8F08100BFF3CC0E0093
:1026F00081230E00B96C0020B06C0020B46C002067
:10270000206C0020686C0020146C0020152B0E003B
:1027100034CE0E0010B503F063FD08B9082010BDDB
:1027200003F066FD04460028F8D1044803F02DF9B3
:1027300018B105F04FF8204610BD10BD48CD0E0071
:1027400003F080BC08B503F05DFD20B1044940F200
:10275000D13002F050F9BDE8084004F0D5BB00BF0D
:10276000F3CC0E0008B503F043FD20B90A494FF43D
:10277000767002F040F94FF08043D3F83824920786
:1027800004D50648BDE80840FFF7E0BDD3F838247B
:10279000D107F2D408BD00BFF3CC0E005CCD0E0013
:1027A00007B502A8822300F8043DFFF7CFFD03B070
:1027B0005DF804FB2DE9F341044620B93B4940F2A2
:1027C0006A5002F018F9636823B9384940F26B5037
:1027D00002F011F963681B6823B9344940F26C5068
:1027E00002F009F923681B6823B1304940F26D50AB
:1027F00002F001F903F0FCFC30B12C4940F27150B9
:1028000002F0F9F8002617E003F0EAFC0028F9D1FD
:10281000F3E70078FFF71EFE036808F1010823B113
:10282000112035E04FF000083E465FFA88F1284657
:10283000FFF7A8FD0028ECD131462046FFF7B6FD92
:10284000771CFFB205460028ECD129462046FFF749
:10285000ADFD6E1CF6B2804670B10027354603E030
:1028600021460078FFF718FEF9B24046FFF78AFDCF
:1028700001370028F4D1E8E70D4D0C4E2B6853B911
:1028800002A90B232C60204601F8043DFFF7A2FDAE
:1028900002B0BDE8F0819C4204D1314640F297502D
:1028A00002F0A9F82B681D68E8E700BFF3CC0E0022
:1028B000B06C0020024B1878003018BF0120704720
:1028C000B86C002000F00F03072B10B5044604D8A5
:1028D00004F052F8204604F00DFC2046BDE81040FC
:1028E00004F0B8BB04F082BB014B1868704700BF0E
:1028F000B06C00202DE9F8430E4B1C6880460F4653
:10290000ACB194F808900026F5B24D4504D32046AA
:10291000FFF792FD0446F3E729462046FFF746FD00
:102920000378434506F10106EED107B13D7020461C
:10293000BDE8F883B06C00201146FFF74BBD00F0F6
:102940000F03082B10B50C4608D8FFF783FD00686D
:1029500020B12146BDE81040FFF73CBD102010BD5E
:1029600038B5074B1C68054604B938BD29462046D2
:10297000FFF730FD2046FFF75FFD0446F4E700BF98
:10298000B06C002038B5084B1C6805460CB9062011
:1029900038BD29462046FFF71DFD0628F8D1204600
:1029A000FFF74AFD0446F1E7B06C002038B5044655
:1029B0000D4603F008FD48B1054B1B78022B05D1ED
:1029C00029462046BDE8384003F00ABD082038BD3E
:1029D000B96C002038B504460D4603F0F4FC48B14C
:1029E000054B1B78022B05D129462046BDE838400F
:1029F00003F07CBD082038BDB96C002043689B689B
:102A000070B505460E4614469BB92B7AB34204D2E4
:102A10000F4940F2F92001F0EEFFB4B931462846E3
:102A2000FFF7C4FC46780546E1B28E4205D8002087
:102A300070BD98470628E8D070BD2846FFF7A2FC75
:102A40000078FFF73FFF0134EEE70720F4E700BF0F
:102A5000F3CC0E004368DB6870B504460D4603B145
:102A60009847237AAB4204D20B494FF4467001F0E9
:102A7000C2FF29462046FFF799FC46780546002408
:102A8000E1B28E4200D870BD2846FFF77BFC00788B
:102A900004F0ACFA0134F3E7F3CC0E0043681B6991
:102AA00003B1184718467047F8B50D4B0D4E1C681A
:102AB00004B9F8BD277A0025E9B2B94204D320460B
:102AC000FFF7BAFC0446F3E700222046FFF796FF23
:102AD00020B1314640F26A7001F08DFF0135EBE71D
:102AE000B06C0020F3CC0E00094B70B51C6804B923
:102AF00070BD267A0025E9B2B142204603D3FFF724
:102B00009BFC0446F3E7FFF7A5FF0135F3E700BFA1
:102B1000B06C002038B58E4B1B68054623B98D4933
:102B200040F2254001F067FF01F0E6FB052804D8DC
:102B3000884940F22C4001F05EFF2C78092C20D00F
:102B400023D8032C00F0C38012D8012C00F0AD80F4
:102B500040F294800320FFF7D1FC0220FFF7E6FB50
:102B60002846FFF7FDFE2846BDE83840FFF7E6BBE4
:102B7000052CF8D0C0F0BA80062C00F0C680082CD6
:102B800013D12046FFF7D2FB9CE0812C14D005D84E
:102B90000F2CF6D0802C4AD00A2CF1E7832C53D08E
:102BA00025D3842C5AD0852CDDD06A4940F226509A
:102BB000BDE8384001F01FBF6748FFF7BFFB66481C
:102BC000FFF7CEFE0D20FFF7B1FBFFF78DFF01F001
:102BD00012F8624B1B6843B9614B187A03F0C6FACE
:102BE0000120BDE83840FFF789BC0120F6E7FFF778
:102BF0007BFF04F061F90020FFF780FC5948FFF7E4
:102C0000AFFE5848FFF79AFB0E20FFF78FFB564B9D
:102C10001B78023BDBB2062B00F29880534AD35C50
:102C2000002B00F09380BDE8384002F073BE4E4B9D
:102C30001B78062B06D0072B02D0052B40F0868090
:102C40000220CEE70820CCE7474B1B78032B7DD131
:102C500004F096F9002879D00420C2E7424B1B7893
:102C6000032B05D104F08CF910B10420FFF746FCCA
:102C700003F0D8FA002869D00620B2E73A4B1B7857
:102C8000032B01D0082B02D13948FFF743FF002066
:102C9000FFF74CFB314B1C6804B938BD2046294670
:102CA000FFF798FB23685C68F6E7FFF71DFF00F06D
:102CB00099FF0220FFF722FC2046FFF737FB28464A
:102CC000FFF73CFB2846BDE83840FFF749BE264BDE
:102CD0001B78082B06D10220FFF710FC03F0E2FA64
:102CE0000320EAE70520FFF709FCF9E70320FFF7D7
:102CF0001DFB2048FFF722FB1E48FFF731FE1A4B51
:102D00001B78062B9CD107206BE7A878FFF7A2FB66
:102D10000368044623B90F4940F2025001F06BFEEC
:102D2000636823B90B4940F2035001F064FE636805
:102D300020682946984748B1A87800F00F03013B66
:102D4000062B03D8BDE8384003F0D8BD38BD00BF1E
:102D5000B06C0020F3CC0E005DCD0E00B46C0020F2
:102D6000146C00205ECD0E00B96C002037CC0E0034
:102D70005FCD0E0060CD0E00CA69934210B543606E
:102D80000CD88C690460086F18440867D01A1C447A
:102D9000C86100308C6118BF012010BD01F128020C
:102DA00002608B67002010BD38B50D46044620B97F
:102DB00006494FF4887001F01EFE237AAB4283BFB0
:102DC000093405EB45056019002038BD80CD0E00A3
:102DD00038B50D46044620B9064940F2431001F0CB
:102DE0000AFE6378AB4283BFA07840190019002027
:102DF00038BD00BF80CD0E0008B50121FFF7D4FF1C
:102E00000121FFF7E5FF007808BD000010B504467A
:102E100018B906495F2001F0EEFD23681BB903498C
:102E2000602001F0E8FD20680C3010BDBFCD0E0021
:102E30000149522001F0DFBDBFCD0E0070B50D4637
:102E4000044608B9FFF7F4FFE36923B12946204699
:102E5000BDE87040184770BD2DE9F8431746CA4ACF
:102E600099460B7A13700E460546904620B9C7491D
:102E700040F20F3001F0BFFD2B68B3F5517F00F039
:102E8000C78200F2D08040F22632934200F03682B0
:102E900063D840F21632934200F0F28126D840F215
:102EA0001332934200F0D181B3F5457F0BD2002B52
:102EB00000F0B58140F21232934200F0BB81002055
:102EC0002860BDE8F88300F0CE8140F215329342CD
:102ED000F5D100240FB12B793B5501340223A145D4
:102EE0002B7100F2CE8140F216339FE140F219328D
:102EF000934200F0DE8114D840F21732934200F082
:102F0000CB81B3F5467FDAD100240FB12B793B5545
:102F100001340023A1452B7100F2CC8140F219331A
:102F200084E1B3F5487F00F0DC8140F22132934226
:102F3000C5D100240FB12B793B55954B30461978FC
:102F4000FFF732FF934B01341860A14503782B71D2
:102F500000F2D58140F2263368E140F233329342E9
:102F600000F00A82B3F54D7F38D2B3F54B7F00F005
:102F7000E0811CD840F22732934200F0CB81B3F5B8
:102F80004A7F9CD100240FB12B793B55814B327D78
:102F90001B681B789A4204F1010440F0E38102238C
:102FA000A1452B7100F2C6814FF44B733EE140F214
:102FB0002D32934200F0C98140F22E3293427FF4C9
:102FC0007EAF00240FB12B793B5501340023A1457E
:102FD0002B7100F2F1814FF44F7327E1B3F54F7F6E
:102FE00000F0E98106D8B3F54D7F00F0D18140F2C1
:102FF0003532E3E740F24232934200F0F18100F2D1
:10300000FB8140F2413293427FF459AF00240FB16B
:103010002B793B5501342423A1452B7100F2E1812A
:1030200040F2423302E140F25632934200F05D82B8
:103030006AD8B3F5537F00F01F8232D840F249328C
:10304000934200F0008215D840F24532934200F0DE
:10305000ED81B3F5527F7FF432AF00240FB12B79AD
:103060003B5501342423A1452B7100F2ED8140F240
:103070004933DBE040F24A32934200F0F08140F203
:103080004B3293427FF41BAF00240FB12B793B5599
:103090000134B37D2B71A14500F2EF814FF45373DE
:1030A000C4E040F25132934200F0068215D840F25B
:1030B0004F32934200F0EC81B3F5547F7FF4FFAEC2
:1030C00000240FB12B793B5501340223A1452B710C
:1030D00000F2F38140F25133A8E040F252329342C1
:1030E00000F0F68140F2553293427FF4E8AE0024BE
:1030F0000FB12B793B5501342423A1452B7100F2EC
:10310000F58140F2563391E040F27232934200F082
:103110003A8243D840F25932934200F0FF8115D8E9
:1031200040F25732934200F0EC81B3F5567F7FF4C2
:10313000C6AE00240FB12B793B550134B37D2B7102
:10314000A14500F2EC8140F259336FE040F26D325C
:10315000934200F00B8240F26E3293427FF4AFAEA6
:1031600000240FB12B793B550B4B1978094B18688C
:10317000FFF72EFE013403782B71A14500F2048283
:1031800040F2723352E000BFBC6C0020BFCD0E0095
:10319000BB6C0020C06C0020BD6C002040F283326C
:1031A000934200F01582B3F5617F14D240F277327A
:1031B000934203D0B3F55F7F7FF481AE00240FB15B
:1031C0002B793B5501344023A1452B7100F201823C
:1031D00040F283332AE040F28932934200F00F82BA
:1031E00040F28E32934200F00A82B3F5617F7FF4A1
:1031F00066AE00240FB12B793B55AC4B327D1B687A
:103200001B789A4204F1010440F0EF81336AA14532
:103210001B782B7100F2F48140F2893306E0082319
:103220002B71B9F1000F05D140F212332B60012050
:10323000BDE8F8830FB12B793B700B23B9F1010F77
:103240002B710ED840F21333F0E700240FB12B7925
:103250003B550134337D2B71A14505D84FF445739F
:10326000E4E70124F2E700240FB12B793B55013448
:103270000223A1452B713FF62DAE40F21533D5E761
:1032800000240FB12B793B5501340223A1452B714A
:1032900003D840F21733C9E700240FB12B793B550F
:1032A0000134737E2B71A1453FF62FAE4FF4467368
:1032B000BCE700240FB12B793B557D4B0022013434
:1032C0001A707B4B1A7898F800309A4202D340F279
:1032D0009933ABE70923A1452B7103D84FF4487309
:1032E000A4E700240FB12B793B5501340423A145F9
:1032F0002B713FF61FAE40F2213397E700240FB148
:103300002B793B5501340023A1452B7103D840F2A2
:1033100027338BE700240FB12B793B55634B1B6898
:1033200001345B782B71A1453FF62DAE4FF44A7303
:103330007CE700240FB12B793B5501340223A145D2
:103340002B7103D840F22D3370E700240FB12B7995
:103350003B550134737E2B71A1453FF633AE40F2ED
:103360002E3363E7B27D9A421FD10A23A1452B7108
:1033700003D840F2333359E700240FB12B793B5582
:1033800001340023A1452B7103D84FF44D734DE751
:1033900000240FB12B793B5501340023A1452B713B
:1033A0003FF610AE40F2353340E7424940F2393043
:1033B00001F021FB0AE600240FB12B793B553B4B72
:1033C000327D1B681B789A4204F1010440F0BE80F4
:1033D0000523A1452B713FF61AAE40F2413325E794
:1033E00000240FB12B793B5501340023A1452B71EB
:1033F00003D840F2433319E700240FB12B793B5532
:1034000001341023A1452B7103D84FF451730DE7FC
:1034100000240FB12B793B5501340120A1452871BF
:1034200005D840F245332B60BDE8F88300240FB186
:103430002B793B5501340523A1452B713FF60EAE88
:103440004FF45273F2E600240FB12B793B5501344F
:103450000120A145287103D840F24A33E3E7002454
:103460000FB12B793B5501340323A1452B713FF656
:103470000CAE40F24B33D9E600240FB12B793B550B
:1034800001340423A1452B7103D840F24F33CDE61C
:1034900000240FB12B793B5501342423A1452B7116
:1034A0003FF60FAE4FF45473C0E600BFC06C00206F
:1034B000BB6C0020BFCD0E0000240FB12B793B5513
:1034C00001340223A1452B7103D840F25233ADE6FB
:1034D00000240FB12B793B5501340523A1452B71F5
:1034E0003FF606AE40F25533A0E600240FB12B792B
:1034F0003B5501340623A1452B7103D840F25733C5
:1035000094E600240FB12B793B550134337D2B71A8
:10351000A1453FF60FAE4FF4567387E600240FB176
:103520002B793B5501343E4B1B685A783D4B1A7042
:103530003D4B00221A703C4B1A783A4B1B789A424A
:103540000DD33A4A137801331370BAE6B27D9A422A
:10355000E9D0374940F2623001F04DFAE3E7072342
:10356000A1452B7103D840F26D335FE600240FB103
:103570002B793B5501340523A1452B713FF6F1AD65
:1035800040F26E3352E600240FB12B793B55244BA9
:10359000327D1B681B789A4204F1010407D1032392
:1035A000A1452B713FF60BAE40F277333EE6B27D7C
:1035B0009A4207D10223A1452B713FF600AE4FF48A
:1035C0005F7333E61A494FF4607001F014FAFAE5BC
:1035D00000240FB12B793B5501340023A1452B71F9
:1035E0003FF608AE4FF4617320E6B27D9A4210D1E7
:1035F0000023A1452B7103D840F28E3316E6002438
:103600000FB12B793B550134074A137801331370FE
:1036100091E7074940F2923001F0EDF9F4E700BF7D
:10362000C06C0020BA6C0020BD6C0020BB6C002078
:10363000BFCD0E0010B5044608B9FFF7F9FB2046D0
:10364000FFF7E4FB0023838283610362C3660367A1
:103650004367836700F12803836610BD2DE9F043BB
:103660000D4689B0064620B9A14940F2DD2001F09F
:10367000C2F925B99E4940F2DE2001F0BCF92B7851
:103680000E2B20D8DFE813F075006301750075007C
:103690001F000F00C2001F001F0063011F00750004
:1036A00075007500750026B991494FF4E47001F07A
:1036B000A2F96A78D3094FEA52133DD013F00303FD
:1036C00003D0012B28D0062422E002F01F02012A99
:1036D000F9D1AC78062CF6D105A8039300F062FD71
:1036E00003ABEA7829790093074603463046FEF794
:1036F00043FF05280CD0039B3F2B03D97C49C920ED
:1037000001F079F9039A3946681C00F08FFA0446F3
:10371000204609B0BDE8F0830EB9FFF789FB3046BB
:10372000FFF774FBAB78212BCDD1B5F80720072A22
:10373000C9D100F10C01E7E7012BC4D10EB9FFF7A5
:1037400077FB3046FFF762FBAB78202B074612D0A1
:10375000222BB8D1B5F80730002BB4D1027DB5F8D3
:103760000330838202F0010203F001039A429CB20B
:103770002AD10024CCE7B5F80730072BA3D10EB926
:10378000FFF756FB3046FFF741FBAB780370B5F807
:103790000730DBB2437000240230059020460693C8
:1037A000079400F089FD204605A9FFF7FFF80446BD
:1037B00030B9504B039303A9049600F025FA044650
:1037C000002000F089FDA3E7002C14BF0221032193
:1037D0003046FFF733FB002CCBD101213046FFF7F9
:1037E000E3FA2146FFF7F4FA007803F047FA30468F
:1037F000FFF702FB03F042FA07F12803BC613C62C9
:10380000FC663C677C67BC67BB6681E7002130468D
:10381000FFF7CAFA0021FFF7DBFAAB7802789A4289
:10382000A7D013F0800FEC780AD024B1032C0CBF82
:10383000002403246CE701213046FFF7FFFA67E715
:10384000012C96D003D3032C93D0032460E70EB948
:10385000FFF7EEFA3046FFF7D9FA05463046FFF794
:10386000CBFA254B0593EF6906958046B7B92C6ACC
:103870002B6F6B672F67EF666CB105F1200103C9F1
:1038800005F1180383E803002F6205A94046FFF7FE
:10389000A1F8044600E0AC610021CDE7D5F87890AE
:1038A000A8694F4528BF4F4605F128043A462146EE
:1038B00008F074FA2B6F3B446B67A9EB0703EB66C8
:1038C0002B6A00223C442A67AC66002B3DD005F1F0
:1038D000200999E8030005F1180787E8030014465A
:1038E0002A62EB6E53B9AC69002CCED1D4E700BF8D
:1038F000BFCD0E0059390E00792D0E00EA699A42AB
:1039000017D8A96EA86908F049FAEB69EA6E6B67E7
:10391000D21AEA66AA6E1A44AA6600213046FFF758
:103920008DFA2B6A8BB199E8030087E803002C62BB
:10393000D7E71A46A96EA86908F030FAEA6EEB6973
:103940002A679B1AEB61AB691344AB61CBE7304646
:10395000FFF770FE0DE700BF10B5044660B90846DA
:10396000FFF754FA0378202B08D1811C07220C3072
:1039700008F014FA204610BD032010BD062010BD2B
:103980007FB5144606460D46FFF740FA838ADA07EC
:1039900013D501213046FFF707FA0021FFF718FA87
:1039A000A306007801950CBF0123002301A902940E
:1039B0000393FEF7FBFF04B070BD0820FBE7000097
:1039C0002DE9F341804616460F4621B9294940F2B8
:1039D000D63001F010F84046FFF718FA838ADB076B
:1039E000044644D5002000F067FCA569002D36D1BF
:1039F000E36EB34212D33246A16E384608F0CEF9D8
:103A0000E36E66679B1BE366A36E3344A3660020E8
:103A100000F062FC284602B0BDE8F081E661A761D3
:103A20004046FFF7E9F9144BE26E06468DE81800B0
:103A300062B1A16EA06908F0B1F9E36EE269236793
:103A4000D21AE261A269E5661A44A261694630466B
:103A5000FEF7C0FF002814BF05469225D7E7236A6A
:103A60001BB9276266629225D1E71125CFE70825A9
:103A7000D0E700BFBFCD0E00792D0E0000207047AB
:103A800010B5044620B9044940F2432000F0B3FFCA
:103A90002368186810BD00BF9ECC0E002DE9F04FC2
:103AA0004B6887B080460C4693466BB90868FFF7B1
:103AB000E7FF48B9A5683DB9C8F80050C8F80450F8
:103AC000284607B0BDE8F08FBBF1400F04D9384954
:103AD0004FF4CB7000F08FFF02F052FDE7680290C8
:103AE0005F453B4628BF5B4601934FF0000904F158
:103AF00010034E4601250393019B002B31D0A36890
:103B0000DDF804A061689A4528BF9A4600292CD0A8
:103B1000029B5246981908F041F900236360E2685D
:103B2000A368A2EB0A02E260019AA3EB0A03A2EBEC
:103B30000A02A3600192564433B9B9F1000F03D0D1
:103B40002068FFF79DFF2060E368002B2ED0A3685C
:103B5000002BD1D12268B2B9626016B1B34588BFDB
:103B60000025029B88E84800AAE7002BD7D02168EF
:103B7000029A4B680398D3F8049032445346C847DE
:103B80004FF00109CBE70DF1180A4AF8083D21680A
:103B90004B685B6800221F4650460123B84708B9AE
:103BA0002061A9E7A3680133A360F0E71D46A3E7FE
:103BB0008ECE0E00084B1A7882420CD0052818BF12
:103BC000064A187018BF137805481CBF23F002037B
:103BD0001370FEF79FBF7047D06C0020EC6C002084
:103BE00044CE0E0008B50020FEF76CFE8020BDE834
:103BF0000840FEF767BE08B50020FEF773FE802080
:103C0000BDE80840FEF76EBE38B505460C4602F02A
:103C100045FFA84201BF94E80300034B83E803007B
:103C2000002018BF102038BDF06C00207FB5C3887D
:103C300093421D4628BF154693420E46144620D98E
:103C4000802002F0BBFBB4FBF0F303FB1040B0FAA2
:103C500080F04009039000200196029500F02CFBB3
:103C600001A98020FEF7A2FE044620B90649802063
:103C7000FFF7CAFF0446002000F02EFB204604B0E8
:103C800070BD0020E6E700BF78CE0E002DE9F04FB2
:103C90000C78062C89B006460D4600F0458221D8E6
:103CA000022C52D003D8012C3DD0062454E0032C22
:103CB0003DD0052CF9D10DF115008DF8144002F01E
:103CC00081FEA94A002313609DF8153003F01F03FD
:103CD0009346032B00F2D381DFE813F04200740116
:103CE000BD0118010D2C00F00C8211D80B2C00F036
:103CF000FD810C2CD9D19D4B1B78012B04D09C4904
:103D000040F2514000F077FE0020FFF753FF1CE027
:103D10000E2C00F0FE81852CC7D1944B1B78032B11
:103D2000C3D1042000E00320FFF744FFBDE7914822
:103D300000F056FF30B1904B01221A60BFF36F8F35
:103D4000BFF34F8F894B1C780CB1002404E08849E5
:103D500040F2374000F04FFE204609B0BDE8F08F3A
:103D600026B9834940F25D3000F045FE9DF81530DC
:103D7000C3F34115002D40F0C980DB099DF81610F2
:103D800000F0B580062918D0082900F0A38000298A
:103D900040F0BC80794C0222204608F029F82378B4
:103DA00043F001022270764A1278950744BF43F02F
:103DB00003032370022271490FE09DF81830022B93
:103DC00011D0032B78D0012B40F0A080BDF81B3020
:103DD000002B00F0AD806B4912220DF11500FFF7AA
:103DE00025FF044638E0BDF81B70002F00F0A080CE
:103DF000092F28BF0927FEF777FDDFF874A10446D5
:103E00004FF009086CBB5D4C5F493A46204607F00D
:103E1000C5FF2571A4F80280FEF74CFD18B1E379C7
:103E200043F02003E371FEF75FFD584B83E89100F8
:103E30000020BDF81B20DA6000F03EFA54498020D3
:103E4000FEF7C8FD044620B952498020FFF7DCFE8A
:103E50000446002000F040FA062C57D0002C67D012
:103E6000D1E0636823B9514640F2C62000F0C3FD9B
:103E700063685B6823B9514640F2C72000F0BBFD80
:103E80000DF12009002649F8146D019663685B68FE
:103E900000221E46214601234846B047019B40B9F7
:103EA0009844237A20461D44FFF7EAFDEDB204460C
:103EB000A8E701330193E9E7BDF81B30002B37D0A9
:103EC000BDF819109DF8170000F0C2F90146E8B1DD
:103ED000027882E7254A1278052A03D1274A13700F
:103EE000012268E7042A11D1244B1D70F8E701393B
:103EF00008290BD8DFE801F02A0A0E0A050A0A0A87
:103F000050001B4940F2813000F075FD05A8FEF716
:103F100039FD9CE0BDF81730012BF7D1FEF7CAFC44
:103F2000002800F02E81164A137843F00203137024
:103F3000DBF80040002C00F01F8102F0AFFD0446CA
:103F400000287FF402AF02F063FD05E7BDF81730EB
:103F5000012BDBD1FEF7AEFC002800F01281084AED
:103F6000137823F00203E2E7F06C0020D06C00200D
:103F70008ECE0E00F86C00205C700240FC6C0020BD
:103F8000EC6C002064CE0E0045CE0E00D46C0020F8
:103F9000E8CE0E0078CE0E007C4B1B78043B012B44
:103FA00000F2A2809DF817302BB9FEF79DFD04208A
:103FB000FFF700FEBCE7012B40F0E580FEF774FD43
:103FC0000520F5E703A99DF81900FEF793FC0646C6
:103FD00000283ED005AA9DF80C10FEF7ADFC06287F
:103FE00004467FF43BAF9DF8152012F0600F0AD114
:103FF000664B9DF80C1018789DF81630D50918D02E
:1040000023B10A2B08D002F046FDA5E605286BD1A6
:104010005F490B80022207E0052865D13046FEF794
:104020003DFD5B492A4608700DF11500FFF7FEFDC6
:104030000DE00B2BE7D1052856D1BDF81730FF2B2B
:1040400000F2A1809DF817203046FEF7D7FC044609
:1040500004E71024D7E79DF81900040711D19DF853
:10406000153013F0600F0AD19DF81620474B9DF8CC
:1040700019401B78012A25D00BD3032A13D006241C
:10408000C1E705A9FEF75BFC062804467FF4E6AE0F
:10409000E5E7052B01D0210726D1204602F04CFC94
:1040A0003B490880B6E704F00F02072AE7D8BDF8BD
:1040B00017100029E3D1052B00D0AAB9204602F041
:1040C0001DFC35E704F00F02072AD8D8BDF81710F9
:1040D0000029D4D1052B00D032B9204602F04CFC87
:1040E000204603F007F823E708248CE7274B1B78CA
:1040F000002B3FF42AAE274940F24B4000F07BFCF6
:1041000023E64FF08043D3F83834DA070AD502208B
:10411000FBE51E4B1B78012B04D81E4940F265407D
:1041200000F069FC0120F0E5CB78032B3FF414AEDE
:104130008B785B0604D0174940F2744000F05BFCBA
:10414000154E3368DBB10022E87832607168984719
:10415000044600287FF457AF336823B1AB78002BB7
:104160007FF4F3ADEFE60D4B1B68082B04D10C4B2D
:104170001B68002B3FF4E9AD02F08AFCECE50E244D
:1041800041E70F243FE707243DE700BFD06C002044
:10419000FC6C00208ECE0E00F06C00203001001070
:1041A0003401001008B1402303600148704700BF8C
:1041B000FC6C002070B54FF0805286B0D2F8A83069
:1041C000D2F8A42000926FEA83436FEA934302ADD2
:1041D0009BB2094A094E0D21284607F0BBFD002479
:1041E000284607F05BFE844201D306B070BD2B5D0C
:1041F000A3550134F4E700BFF0CE0E003C6D002063
:10420000F8B5114B53F820502B7813B9AE1C30463B
:10421000F8BD0020FFF7C6FF0C4F064600232A78A2
:104220005C1C2AB96400E4B244F440743480EEE7C4
:104230001E2B03D93946E62000F0DDFBE3B215F86A
:10424000012B26F81320EAE7A8CF0E0046CF0E0078
:1042500008B9FFF7D5BF052807D8054A105C20B17B
:10426000044B53F82030002BF3D10020704700BFDF
:10427000C0CF0E00A8CF0E0072B6024A13680133F9
:10428000136070474C6D0020034A1368013B1360B4
:1042900003B962B6704700BF4C6D0020EFF3058391
:1042A000C3F308032BB9EFF31480C04300F00100FF
:1042B00070470120FAE7000008B5FFF7EFFF01287B
:1042C00003D00449432000F096FBBDE80840FFF707
:1042D000D3BF00BFC6CF0E0008B5FFF7DFFF012830
:1042E00003D00449512000F086FBBDE80840FFF7E9
:1042F000CBBF00BFC6CF0E00EFF30583C3F30803A7
:104300008BB1103B5AB2002AADBF02F1604303F0FB
:104310000F03064A03F56143B4BFD05C93F8000372
:104320004009C0B270470F20704700BF14ED00E095
:1043300030B53AB11368DB430B4C0144814204D1E0
:10434000D84330BD4FF0FF33F6E710F8012B534050
:10435000082213F0010F14BF25460025013A85EA13
:104360005303F6D1EAE700BF2083B8ED70B50C46E1
:104370001646054618B90549DF2000F03CFB2B68BE
:10438000C3F844430EB1C3F8044370BD2FD10E00EF
:1043900037B50C46054618B90749F02000F02BFB4D
:1043A0002B68185928B100221A511B590193019BFF
:1043B000012003B030BD00BF2FD10E002DE9F04722
:1043C00089461446064618B93A49552000F013FBB1
:1043D000B9F1000F03D13749562000F00CFB1CB98E
:1043E0003449572000F007FB7379334A334F42F8C2
:1043F000234007EBC303324C1B79324D53B1601B92
:10440000C0080004304940F00200FCF7C1FC08205D
:10441000BDE8F087B9F80080D6F800A0B8F5805F55
:1044200004D32A4940F2231000F0E5FACAF80885BF
:1044300099F8029096F90480B9F1070F03D924493D
:104440006B2000F0D8FAB8F1000F4FEA4919B7BF56
:10445000204B08F1604808F00F085FFA89F9A9BFFE
:1044600008F5614803F808905FFA89F988F8009325
:1044700096F9043003F01F025B099B0003F16043CF
:10448000012103F5614301FA02F2C3F880211A60A9
:104490007379601B07EBC302C0080004117147F871
:1044A00033600D4940F00300FCF772FC0020BDE8CA
:1044B000F08700BF2FD10E00586D0020506D0020F6
:1044C00068C60E0038C60E0036D00E0058D00E005A
:1044D00082D00E0014ED00E0AED00E0010B5044600
:1044E00018B90449872000F086FA236801221A606F
:1044F00010BD00BF2FD10E0010B5044618B90449F5
:104500008D2000F078FA236801225A6010BD00BFA8
:104510002FD10E002DE9F3410C4615461E4680466C
:1045200018B92D49AC2000F066FA4FF48037A74047
:10453000A40004F5A072D8F8003092B20021C3F8AC
:104540000873C3F8487399501C449A58019225F097
:104550007F45019AD4F84025C4F84055D3F8043576
:10456000D31A23F07F43012B0FD11C4B1C481D494C
:10457000C01AC008000440F00400FCF709FC1A4B04
:104580004FF4046043F001039847D8F80010C1F8D5
:104590004473D1F80435E81A20F07F4226F07F46B4
:1045A000000248BF42F07F427642B24210DD022A4A
:1045B0000EDC0A4A0A480D49801AC008000440F07F
:1045C00004002A46FCF7F2FB0D2002B0BDE8F081A2
:1045D000C1F804730020F8E72FD10E0038C60E0092
:1045E00068C60E00C0D00E0030D00E00F1D00E0014
:1045F0000A460221FFF7BABE4FF48271FFF7C8BE28
:10460000890001F5A07189B2FFF7C2BE0368D3F833
:104610000405704790F9043001215A0903F01F0383
:1046200001FA03F34032024941F82230704700BFDB
:1046300000E100E0024B034A1B681068184700BF06
:10464000586D0020506D002038B51B4CA3781BB965
:104650001A49502000F0CFF9194A1368002B11466F
:1046600025DC6078A388E27BB0B1607B851AAB4221
:104670000FDB002363706369A08003B105330B6017
:104680002179104800F0B0F9A0B1BDE8384003F03E
:10469000A1B81344A380F3E7A07B8518AB4204DCE8
:1046A00001236370A0802369E7E79B1AF2E7FF3BD1
:1046B0001360E5E738BD00BF5C6D002091D10E00AE
:1046C000C86D00208C6D002070B5254CA378054680
:1046D0001BB12449812000F08EF91DB921498220A7
:1046E00000F089F96B78002B38D0AA789A4235D23D
:1046F000EB78002B32D0EB68002B2FD05422002116
:10470000174807F075FB14222946174807F046FBA7
:10471000EA78AB7815491344A38000232370EB6833
:10472000A360A3622B69227B6362FF23012684F8C6
:10473000202084F821300E4A0E4B667001F11000E3
:10474000E36200F0B3F850B9A670A978EB780A4894
:104750001944C9B2BDE8704000F046B9072070BDE9
:104760005C6D002091D10E00686D00207C6D0020F2
:1047700049460E00F4D10E008C6D0020074B9B784B
:10478000012B10B5044603D00549B12000F033F9E0
:1047900021460448BDE8104000F0E8B85C6D0020F8
:1047A00091D10E008C6D0020014800F005B900BFCA
:1047B0008C6D002038B5054CA27805461AB904491D
:1047C000C52000F018F9256138BD00BF5C6D0020E0
:1047D00091D10E0038B5054CA27805461AB90449A6
:1047E000CD2000F008F9656138BD00BF5C6D002088
:1047F00091D10E000178036AC26821B1C3F80C257B
:10480000002343707047C3F80825F9E738B5037DE6
:104810000446002B3FD18369DBB9E378A278934249
:104820001FD12078236AE168C0B1C3F808150123BD
:104830000532637022612379022B0ED1E36921696D
:1048400018682246FDF734FD38B1BDE8384002F063
:10485000C1BF98472379022BDFD038BDC3F80C15B0
:10486000E5E733B92046FFF7C5FFA3780533236199
:10487000E1E72578216AE06855B1C1F8080513FB26
:1048800002F31B1201210533617023612175D2E708
:10489000C1F80C05F3E7FFF7ADFF00230375C278FD
:1048A00083789A1A53431B12E0E7000003792DE93D
:1048B000F04704460D4616461BB128499D2000F0DE
:1048C0009AF8AB681BB925499E2000F094F86B68F4
:1048D0001BB922499F2000F08EF86B781BB91F4945
:1048E000A02000F088F82B78A661AE6823706B6872
:1048F000A660E66023626B78A370E868E061184AFE
:104900000021FDF7B9FC074660B9DFF85890DFF8E1
:1049100058A005464FF003083EB92046FFF76AFF4E
:10492000012323713846BDE8F087F3070DD52F2DFD
:104930000ED951464FF4E87000F05DF805F01F0302
:104940004A4603F5E07342F8238001357608E3E731
:104950001F2DF3D82B464FF0A042F2E7F8D10E00FE
:104960000D480E000003005010CB0E00037970B507
:1049700004460D461BB90F49CD2000F03CF8A36852
:104980001D4203D10B49CE2000F035F802232371DC
:10499000E5602046FFF72EFFA168A66929430025A0
:1049A0002046A1602575A561FFF730FFA661284666
:1049B00070BD00BFF8D10E0038B50379022B044654
:1049C00003D00849E32000F016F8E3691868FDF702
:1049D00095FC05462046FFF70DFF0DB90123237115
:1049E000284638BDF8D10E0083788B4226BFC170AF
:1049F00000200720704707B5ADF8000001916A4616
:104A0000002144F2020002F0CFFE03B05DF804FB87
:104A100010B561B1B2FBF3F403FB1424A4B244B9A2
:104A200080E8120084608281C381204610BD0E2080
:104A300010BD092010BD37B550E8013F9DB2C489B3
:104A400025448489A54228BF2D1B0489A54202BFA5
:104A5000BFF32F8F002207E0C5EA030540E80154A9
:104A6000002CE9D14FF001028DF803200193019B46
:104A70009DF803200B6002F0FF0322B10B88006851
:104A8000184403B030BD1846FBE70A884B889A42A9
:104A900009D150E8012FC2EA024240E80123002B6D
:104AA000F7D1012070470020704737B550E8023F2A
:104AB0001FFAA3F5C488A54202BFBFF32F8F0022BF
:104AC0000DE0C48925448489A54228BF2D1BC3EA73
:104AD000054540E80254002CE8D14FF001028DF862
:104AE00003200193019B9DF803200B6002F0FF035C
:104AF00022B14B880068184403B030BD1846FBE76C
:104B00000A884B889A4209D150E8022FC2EA224211
:104B100040E80223002BF7D10120704700207047A6
:104B200000B550E8002F0B4640E8003E9EF0000F15
:104B3000F7D110465DF804FB00B550E8002F42EABB
:104B4000010340E8003E9EF0000FF6D110465DF8EC
:104B500004FB00B550E8003F43EA010240E8002EA4
:104B60009EF0000FF6D110465DF804FB00B550E84A
:104B7000002F02EA010340E8003E9EF0000FF6D14C
:104B800010465DF804FB00B550E8003F03EA01025F
:104B900040E8002E9EF0000FF6D110465DF804FBB1
:104BA00000B550E8003F03EB010240E8002E9EF004
:104BB000000FF6D110465DF804FB00B550E8003F49
:104BC000A3EB010240E8002E9EF0000FF6D1104644
:104BD0005DF804FB0121FFF7AFBF0121FFF7B9BF6B
:104BE0000021FFF7C3BF0021FFF7CDBF10B504467A
:104BF000002834D003681BB91A49FF20FFF7FBFED9
:104C0000636823B917494FF48070FFF7F4FEA36877
:104C100023B9144940F20110FFF7EDFEE36823B910
:104C200010494FF48170FFF7E6FE238A23B90D493E
:104C300040F20310FFF7DFFE6268A36821689B1A49
:104C4000DBB20A60013BDBB2FF2B226802D10020FD
:104C5000107110BD1168481C10600B70F2E70E2037
:104C600010BD00BF64D20E0038B5044620B911490A
:104C70004FF49270FFF7BFFE0020FFF71DFB226884
:104C800063681168994213D9481E106011F8015CDD
:104C9000E368218A01FB0535A36811791B1ADBB291
:104CA000994200D213710020FFF716FB284638BD49
:104CB0000025F8E764D20E0038B50C46054620B949
:104CC0000E4940F24710FFF796FE24B90B494FF406
:104CD000A470FFF790FE0020FFF7EEFA2A68136831
:104CE000591C1160EA68A41A2A8AB4FBF2F41C70F9
:104CF0000020BDE83840FFF7EFBA00BF64D20E00D5
:104D000010B5044618B906493120FFF774FEA268B1
:104D10002AB163692168206998470023A36010BD08
:104D2000BDD20E000EB433B5059D044618B9124924
:104D30004220FFF760FE63691BB90F494320FFF76C
:104D40005AFE23681BB90C494420FFF754FE6368E0
:104D50001BB909494520FFF74EFE3DB102AA06AB3B
:104D600042F8043D2946204600F070F802B0BDE844
:104D7000304003B0704700BFBDD20E00826830B42F
:104D80000468551C8560A154826843689A4202D326
:104D900030BCFFF7B5BF30BC704700002DE9F84FBD
:104DA0000A9C99460B9B1746824688460A4601266E
:104DB000BA420FD24E4538BF4E4613F0010B01D117
:104DC00064B900240125B9F1010F1AD909F1FF399D
:104DD0007D43F8E7B2FBF7F20136E9E79B070ED512
:104DE000B9F1000F0CBF30252025A642EAD2013CC4
:104DF00029465046FFF7C2FF002CF6D1E1E72025F7
:104E0000F3E7B8FBF5F39F42E2D9DFF83C90B8FB3B
:104E1000F5F3504619F8031005FB1388FFF7AEFFB2
:104E2000B5FBF7F5002DF2D1BBF1000F0AD03CB96C
:104E3000BDE8F88F013C20215046FFF79FFF0CB1E1
:104E4000A642F7D3BDE8F88F0CD30E002DE9F74F3B
:104E50000C461746054620B9AA494FF49F70FFF744
:104E6000CAFD6B6923B9A7494FF4A070FFF7C3FDD2
:104E70002B6823B9A34940F24110FFF7BCFD6B68D2
:104E800023B9A0494FF4A170FFF7B5FD002C00F045
:104E9000358114F8011B49B92B7B002B00F02E81C2
:104EA000284603B0BDE8F04FFFF72ABF252940F0A0
:104EB000218122460026114611F8013B2D2B24D0DA
:104EC000302B26D02B2B27D000242A2B904602F102
:104ED000010124D13B681A1D1B683A601C448846B6
:104EE00098F800302E2B25D108F101014FF0000970
:104EF000884611F8012BA2F1300009281CD80A239A
:104F000003FB0923A3F13009F2E746F001060A4644
:104F1000D1E746F00206FAE746F00406F7E7137811
:104F20000A46A3F130010929DAD80A2101FB043429
:104F3000303CCAE74FF0000998F8001001F0FB027E
:104F4000682A02D118F8011FF8E769290FD04BD859
:104F5000582965D007D825296ED008F10104237897
:104F6000002B96D198E7632962D06429F5D13A687D
:104F7000D2F800A0111D8AEAEA723960A2EBEA7247
:104F80004FF0010B092A5BDCCB4538BFCB462CB177
:104F9000BAF1000F01DB710700D5013CB20702D561
:104FA000B9F1000F04D0F30702D4002C4ED1002435
:104FB000BAF1000F52DACAF1000A2D212846FFF794
:104FC000DDFE06F00302022A05D1B9F1000F02D17D
:104FD000002C47D100248DE850004B460A22514650
:104FE0002846FFF7DBFEB8E773294CD014D87029A8
:104FF000B3D13B681A1D3A60302128461C68FFF780
:10500000BDFE78212846FFF7B9FE0023019308234F
:10501000009310222146E3E775292BD078299CD1F3
:1050200039680A1D3A604B468DE85000102228E08E
:105030003B681A1D19783A602846FFF79FFE8CE7F7
:105040000A230BF1010B92FBF3F29BE7A345AFD2CE
:1050500020212846013CFFF791FEA6E77007B0D556
:105060002B21ABE7A345B6D230212846013CFFF700
:1050700085FEADE739680A1D3A608DE850004B4661
:105080000A220968ACE73B681A1D3A60F107D3F8B9
:1050900000A012D55646A6EB0A0B16F8011B41B923
:1050A0005C457FF65AAF20212846013CFFF766FE9B
:1050B000F6E72846FFF762FEEDE7BAF1000F11D0E0
